:020000040000FA
:020000000328D3
:040002000034003492
:0A000600831203138501831603170C
:100010008801890183160313850186018701880100
:1000200089010313831285018601870188018901F3
:1000300007100130880087140221871002210C303C
:10004000880087140221871002213C308800871421
:100050000221871002210710022180308800FD2034
:100060000714022109181421091C242120308800BA
:10007000FD2020308800FD2020308800FD20851BD9
:100080000C21851F1021051B0C21051F1021851A2D
:100090000C21851E1021051A0C21051E1021851921
:1000A0000C21851D102105190C21051D1021851815
:1000B0000C21851C102105180C21051C102107108E
:1000C0000221C0308800FD200714022109182B30BE
:1000D000091C2D308800FD2020308800FD202030B4
:1000E0008800FD2020308800FD2020308800FD2081
:1000F00020308800FD2020308800FD20203088003E
:10010000FD20861B0C21861F1021061B0C21061FBB
:100110001021861A0C21861E1021061A0C21061E9B
:10012000102186190C21861D102106190C21061D8F
:10013000102186180C21861C102106180C21061C83
:1001400010210710022190308800FD2007140221A1
:100150005F308800FD205F308800FD205F30880020
:10016000FD205F308800FD205F308800FD205F307B
:100170008800FD205F308800FD205F308800FD2072
:100180005F308800FD205F308800FD205F308800F0
:10019000FD205F308800FD205F308800FD205F304B
:1001A0008800FD205F308800FD205F308800FD2042
:1001B00007100221D0308800FD200714413088004C
:1001C000FD204E308800FD2053308800FD20573040
:1001D0008800FD2045308800FD2052308800FD2039
:1001E00020308800FD20091C422109183421071005
:1001F000022180308800FD202B28871402218710DF
:1002000002210800B0010A30B1005030B000B00B3C
:100210000729B10B0529080031308800FD200800AE
:1002200030308800FD20080041308800FD20443037
:100230008800FD2044308800FD2020308800FD200B
:1002400020308800FD20080053308800FD20553004
:100250008800FD2042308800FD2020308800FD20ED
:1002600020308800FD200800B4010508B20006080F
:10027000B30032083307B40003180C21031C10210B
:100280005B210800B4010508B2000608B30033087A
:100290003202B40003182B30031C52218800FD20C9
:1002A0005B2108002D308800FD20B409013034079F
:1002B000B4005B210800B41F1021B41B0C21341FB3
:1002C0001021341B0C21B41E1021B41A0C21341E31
:1002D0001021341A0C21B41D1021B4190C21341D25
:1002E000102134190C21B41C1021B4180C21341C19
:0802F000102134180C21080054
:02400E00F42C90
:02401000FF3F70
:00000001FF
